:040000008A15002835
:06000600000000000800EC
:0E000C00213083120313FD00FD0B0A280800AB
:10001A000F3083120313FC004730FD00FD0B132839
:0A002A00FC0B132800000000080082
:0E003400F201F101F001F801F30100300800C3
:1000420083120313F801F9011030FC00710DF80D51
:10005200F90D7408F8027508031C750FF9020318EC
:1000620039287408F80775080318750FF907031083
:0A007200F00DF10DFC0B272808002B
:10007C0083120313EE1B44288612452886166E1B2A
:10008C00492806124A280616EE1A4E2886114F28C1
:10009C0086156E1A53280611542806154E18582822
:1000AC00061459280610861403208610EE196028B1
:1000BC008612612886166E196528061266280616A1
:1000CC00EE186A2886116B2886156E186F28061193
:1000DC00702806154E1874280614752806108614F8
:1000EC00032086104E1C7C280D207D28062008003D
:1000FC007B15FB1F88280130F300F201F101F001A0
:08010C00FA0DF20CFF300800AF
:08011400FA1FF213003008008D
:10011C000E3083120313FD00FD0B92280000080023
:10012C00FB14FB1FA028FF30F300F200F100F000DD
:08013C00FA0DF20CFF3008007F
:1001440083120313E903E9036908003C0318AF2889
:10015400E903000000000000A628000000000000E1
:060164000000000008008D
:10016A00A1017208031DCA287108F2007008F10083
:10017A00F001A1157208031DCA287108F200F101E5
:10018A00A111211672080319D8282108F302031DA8
:10019A00031CDC280310F21BE028F00DF10DF20D10
:1001AA00F30BD028DC280130FC001A20E3280230A7
:0E01BA00FC007E20E3280430FC008A200800B0
:0E01C8008312031345088A00440882000800D1
:1001D60083120313EC0105306C020318F9286C082E
:1001E6006B07840020308000EC0AEE286C086B0751
:1001F60084008001EC036C086B07ED000A30F40004
:10020600F5016908F0006A08F10021207808F0007D
:100216007908F1003030F0076D088400700880001E
:100226000A30F400F5016908F0006A08F10021209F
:100236007008E9007108EA0000307106031D2529DF
:1002460000307006031D28292A29EC03FE28080021
:10025600831203134E106908EE003E204E14080068
:06026600FB15FF3008004B
:10026C0083120313FB01FA01F901F801A001730DCC
:10027C00F80D7408F8027508031C750FF90276085E
:10028C00031C760FFA027708031C770FFB020001A0
:10029C00031C0130A002F30D0730FC00730DF80DA8
:1002AC00F90DFA0DFB0DA00D7408731C6F29F802E3
:1002BC007508031C750FF9027608031C760FFA02F9
:1002CC007708031C770FFB020001031C0130A0020E
:1002DC008029F80775080318750FF90776080318B5
:1002EC00760FFA0777080318770FFB07000103183E
:1002FC000130A007F30DFC0B5429720DF80DF90D0C
:10030C00FA0DFB0DA00D7408731C9E29F8027508DC
:10031C00031C750FF9027608031C760FFA02770896
:10032C00031C770FFB020001031C0130A002AF2954
:10033C00F80775080318750FF90776080318760F78
:10034C00FA0777080318770FFB0700010318013031
:10035C00A007F20D0730FC00720DF80DF90DFA0D27
:10036C00FB0DA00D7408721CCD29F8027508031C36
:10037C00750FF9027608031C760FFA027708031C36
:10038C00770FFB020001031C0130A002DE29F807E5
:10039C0075080318750FF90776080318760FFA0716
:1003AC0077080318770FFB07000103180130A0072B
:1003BC00F20DFC0BB229710DF80DF90DFA0DFB0DB8
:1003CC00A00D7408721CFC29F8027508031C750F2B
:1003DC00F9027608031C760FFA027708031C770FD4
:1003EC00FB020001031C0130A0020D2AF80775085E
:1003FC000318750FF90776080318760FFA077708B4
:10040C000318770FFB07000103180130A007F10D4B
:10041C000730FC00710DF80DF90DFA0DFB0DA00D58
:10042C007408711C2B2AF8027508031C750FF9024D
:10043C007608031C760FFA027708031C770FFB0271
:10044C000001031C0130A0023C2AF80775080318B0
:10045C00750FF90776080318760FFA077708031853
:10046C00770FFB07000103180130A007F10DFC0BFF
:10047C00102A700DF80DF90DFA0DFB0DA00D740876
:10048C00711C5A2AF8027508031C750FF9027608BC
:10049C00031C760FFA027708031C770FFB0200018E
:1004AC00031C0130A0026B2AF80775080318750F9E
:1004BC00F90776080318760FFA0777080318770FF1
:1004CC00FB07000103180130A007F00D0730FC00FA
:1004DC00700DF80DF90DFA0DFB0DA00D7408701CC4
:1004EC00892AF8027508031C750FF9027608031C9B
:1004FC00760FFA027708031C770FFB020001031C2E
:10050C000130A0029A2AF80775080318750FF9072D
:10051C0076080318760FFA0777080318770FFB078E
:10052C00000103180130A007F00DFC0B6E2A7018A7
:10053C00AD2A7408F80775080318750FF9077608C3
:10054C000318760FFA0777080318770FFB070800D4
:10055C00831203132230FC00F801F901FA01FB01AC
:10056C00FC030319E42A0310FB0CFA0CF90CF80C2D
:10057C00F30CF20CF10CF00C031CB62AFC0303195F
:10058C00D62A7408F80775080318750FF90776084A
:10059C000318760FFA0777080318770FFB07BA2AA8
:1005AC007408F80775080318750FF907760803180F
:0E05BC00760FFA0777080318770FFB07080081
:1005CA00403083120313F0001F30F100F201F301EF
:0205DA00080017
:1005DC00831203137008F8007108F000F101F201A6
:1005EC00F301FB01FC019630F300FA017008F100F5
:0C05FC007808F000F801F201B5200800BA
:1006080083120313FB017308031D770803195B2B7F
:1006180072087606FA007708F3077E30031C182B59
:10062800F30203185E2B1B2BF302031C612B7208C9
:10063800F8007108FC007008FD00F817F6170310A1
:10064800F201F101F0011830A1007D1C352B74086E
:10065800F00775080318750FF10776080318760F69
:10066800F207F20CF10CF00CF80CFC0CFD0C03106A
:10067800A10B292BF21B452BF80DF00DF10DF20DF6
:10068800F3037B1B701C572BF81F572BF00A031919
:10069800F10A0319F20A031D572BF20CF10CF00CA6
:1006A800F30A03195E2BFA1FF2130030632B013093
:1006B8001A20632B02309620632B04307E20000022
:0206C800080028
:1006CA00831203139F01C0309F0483161F179F17BD
:1006DA0083125D08F000F00D7010F00D7010F00D2F
:1006EA00701070089F041F148E201F151F1D7F2B6A
:1006FA0000007B2B1F101E08F100F00183161E0854
:08070A00F0040030F1040800C6
:10071200831203137408003A031DA42B7508003AD0
:10072200031DA42B7608003A031DA42B7708003A78
:10073200031DA42BFF30F000FF30F1007F30F200E8
:10074200FF30F3003F2C8312031377080319332C75
:1007520073080319362C720876068039FA00F217EC
:10076200F617A1017208F8007108FC007008FD007C
:100772007408FD027508031C750FFC027608031C41
:10078200760FF802F801FC01FD01031CCF2B0310C8
:10079200F20CF10CF00CF80C0130A1007708F30216
:1007A200031CD92B7E302107F3070318392CDE2BCB
:1007B2007E302107F307031C3C2C1830FA07FD0D8D
:1007C200FC0DF80DF00DF10DF20DA10D7408F00203
:1007D2007508031C750FF1027608031C760FF202EE
:1007E200760DA104211CF72B7D14022C7408F0074E
:1007F20075080318750FF10776080318760AF207D1
:100802007D10FA031F307A05031DE02B7B1B7D1C34
:10081200292C0310F00DF10DF20DA10D7408F00258
:100822007508031C750FF1027608031C760FF2029D
:10083200760D21040139FD070318FC0A0319F80A91
:10084200031D292CF80CFC0CFD0CF30A0319392C9E
:10085200FA1FF8137808F2007C08F1007D08F00016
:1008620000303E2C013033213E2C02301A203E2C27
:0E087200043096203E2C08307E200000080046
:1008800083120313E201E3015D08E4005E08E50062
:1008900080305E06F00080307002031D512C003065
:1008A0005D0203185F2C0130E2000030E3005D08B8
:1008B000003CE4005E08031C013EE501E50264081B
:1008C000E9006508EA005F08EB00EB200630E00075
:1008D0000030E1006108003C031D702C6008003C02
:1008E00003188B2C60085F07F20001306002F000F3
:1008F0000030031C013E6102F10070085F078400B4
:100900000008F00072088400700880000130E002E6
:10091000031CE1036A2C5F08840020308000620819
:1009200063040319A92CE001E10160085F0784005A
:100930000008203A031DA02CE00A0319E10A952CB7
:100940000130E002031CE10360085F0784002D30E2
:04095000800008001B
:1009540083120313FA017308031D7A147708031D25
:10096400FA147A080319F62C033A0319C12C7A18DD
:10097400BE2CF61FF42CF22CF21FF22CF42C72086D
:100984008039FA00F21376088039F6137A060319CF
:10099400CF2C7A080319F22CF42C7708730203196C
:1009A400D62C031CEA2CEE2C760872020319DD2CDB
:1009B400031CEA2CEE2C750871020319E42C031CA9
:1009C400EA2CEE2C740870020319F62C0318EE2C92
:1009D400FA080319F42CF22CFA080319F22CF42C5B
:1009E400031408000310080003140315080008008A
:1009F400831203135D08DC005E08F1000130F0008F
:100A040071080319092DF00D7010FF3E032D7008B5
:100A1400DB00F0097008DA0080305D07840070089C
:0A0A240080058413700880050800A7
:100A2E00292D803083120313DD003C2DC030DD00F4
:100A3E003C2D9430DD003C2DD430DD003C2D80303B
:100A4E00DD003C2D831203135D08013A0319182DA6
:100A5E005D08023A03191D2D5D08033A0319202D76
:100A6E005D08043A0319232D262D5E03F0005D0860
:100A7E00F0077008DD007008EE003E204E10E00119
:100A8E0060085F07840000080319552D60085F0792
:100A9E0084000008E9002B21E00A472D4E140800BF
:100AAE00E4208A110A128000840AC40A0319C50AB6
:080ABE00F003031D572D080091
:100AC6008316031386100610061186110612861267
:100AD60083128610061086120612861106110D2044
:100AE6000D200D20861506158614032086100D2070
:100AF6008614032086100D208614032086100D20F0
:100B060006118614032086100D20861403208610F5
:100B1600861186168614032086100D208612061569
:100B260086140320861006118614032086100D20D5
:100B360086140320861006158614032086100D20C1
:100B460006118614032086108616061686150615C7
:0C0B56008614032086100D204E140800A9
:100B6200E522E830F4000330F500F601F701AE2289
:100B72007008E5007108E6007208E7007308E800F3
:100B82005D08F4005E08F500F601F70136217008F1
:100B9200E5007108E6007208E7007308E8007008D3
:100BA200F5007108F6007208F7007308F800F80CF7
:100BB200F70CF60CF50CF813F80CF70CF60CF50C18
:100BC200F8137508F0007608F1007708F20078084B
:100BD200F300F30CF20CF10CF00CF3137008E100CB
:100BE2007108E200E5225F08F4006008F500F601F2
:100BF200F701AE226108F9006208FA00FB01FC016C
:100C02000330F8007908F4007A08F5007B08F60052
:100C12007C08F70078080319152EF40DF50DF60D72
:100C2200F70D7410FF3E0C2E36217008E500710896
:100C3200E6007208E7007308E8000A30F4000030AA
:100C4200F5006108F0006208F10021207008E1005F
:100C52007108E20000307102031D312E0330700270
:100C62000318342E812E5C0884006808003C031DA2
:100C7200442E6708003C031D442E6608003C031DF9
:100C8200442E6508003C03187F2E5B08800462082E
:100C920003195B2EE301E40100306402031D532EAD
:100CA2006208630203185B2EE901A220E30A03191A
:100CB200E40A4D2E6108E900A2205A088005620864
:100CC2000319732EE301E40100306402031D6B2E4D
:100CD200620863020318732EE901A220E30A0319D2
:100CE200E40A652E6108E900A2200130E502031C36
:100CF200E602031CE702031CE802362E5A088005AE
:020D02000800E7
:10100000533083120313A2006D30A3006130A4009B
:101010007230A5007430A600A7014830A8006F30D8
:10102000A9007530AA007330AB006530AC00AD018B
:101030005030AE007230AF006530B0007330B10098
:101040006530B2006E30B3006330B4006530B50077
:10105000B6014730B7006130B8007A30B9002030AF
:10106000BA004430BB006530BC007430BD00653050
:10107000BE006330BF007430C0006530C100723004
:10108000C200C3018A1163258A150C30EE008A1153
:101090003E208A150130EE008A113E208A158030EC
:1010A0008316880001308312DD000230DE0022301A
:1010B000DF008A1117258A150230DD000330DE00BB
:1010C0002830DF008A1117258A150130DD008A11CA
:1010D00065238A158A11EE228A157008CA007108E4
:1010E000CB007208CC007308CD000030F400003053
:1010F000F5002030F6008130F7008A1104238A15AC
:101100000030F400C030F5007F30F6008830F70082
:101110008A1189238A157008C6007108C7007208F1
:10112000C8007308C9000030F4000030F5004830F2
:10113000F6008530F7008A1104238A157008D6005E
:101140007108D7007208D8007308D9007008F4003D
:101150007108F5007208F6007308F7000030F0001F
:101160000030F1004830F2008330F3008A11AA24E5
:101170008A15013003180030F00070080319C228E6
:101180000817C32808130C30EE008A113E208A1578
:101190000130EE008A113E208A1583160710831253
:1011A000071C03290130DD000130DE003730DF008D
:1011B0008A1117258A150730DD000130DE008A11FB
:1011C000FA248A15DC30DD000530DE00C830DF008F
:1011D000E0018A11B1258A150230FB000430FC00C1
:1011E000BA30FD00FD0BF228FC0BF228FB0BF228B5
:1011F00000000C30EE008A113E208A150130EE000E
:101200008A113E208A15071D77290C30EE008A11BD
:101210003E208A150130EE008A113E208A15831681
:10122000071102308312DD000230DE002E30DF00B5
:101230008A1117258A150630FB001330FC00AD30EB
:10124000FD00FD0B2129FC0B2129FB0B21290000AE
:1012500000000C30EE008A113E208A150130EE00AD
:101260008A113E208A155408DD005508DE004F30F3
:10127000DF008A1140248A15DD018A1165238A1551
:1012800070088312D4007108D5000130DD000130F0
:10129000DE004F30DF008A1117258A150630FB006B
:1012A0001330FC00AD30FD00FD0B5429FC0B54291C
:1012B000FB0B54290000000080305506F000803000
:1012C000013A7002031D662972305402031869291D
:1012D00008148030013AF000803055067002031D7A
:1012E00073295408723C031876290810782988134A
:0412F00065287929CB
:02400E007A3BFB
:00000001FF
